{
  "contractName": "Buyt",
  "abi": [
    {
      "inputs": [
        {
          "internalType": "address",
          "name": "_add",
          "type": "address"
        }
      ],
      "stateMutability": "nonpayable",
      "type": "constructor"
    },
    {
      "anonymous": false,
      "inputs": [
        {
          "indexed": true,
          "internalType": "address",
          "name": "from",
          "type": "address"
        },
        {
          "indexed": true,
          "internalType": "address",
          "name": "to",
          "type": "address"
        },
        {
          "indexed": false,
          "internalType": "uint256",
          "name": "amount",
          "type": "uint256"
        },
        {
          "indexed": false,
          "internalType": "uint256",
          "name": "orderId",
          "type": "uint256"
        }
      ],
      "name": "Transfer",
      "type": "event"
    },
    {
      "anonymous": false,
      "inputs": [
        {
          "indexed": false,
          "internalType": "uint256",
          "name": "orderId",
          "type": "uint256"
        },
        {
          "indexed": false,
          "internalType": "uint256",
          "name": "amount",
          "type": "uint256"
        },
        {
          "indexed": false,
          "internalType": "uint256",
          "name": "time",
          "type": "uint256"
        }
      ],
      "name": "claimeve",
      "type": "event"
    },
    {
      "stateMutability": "payable",
      "type": "fallback",
      "payable": true
    },
    {
      "inputs": [],
      "name": "orderId",
      "outputs": [
        {
          "internalType": "uint256",
          "name": "",
          "type": "uint256"
        }
      ],
      "stateMutability": "view",
      "type": "function",
      "constant": true
    },
    {
      "inputs": [
        {
          "internalType": "uint256",
          "name": "",
          "type": "uint256"
        }
      ],
      "name": "orderdata",
      "outputs": [
        {
          "internalType": "address",
          "name": "to",
          "type": "address"
        },
        {
          "internalType": "uint256",
          "name": "amount",
          "type": "uint256"
        },
        {
          "internalType": "uint256",
          "name": "time",
          "type": "uint256"
        },
        {
          "internalType": "bool",
          "name": "isclaimed",
          "type": "bool"
        }
      ],
      "stateMutability": "view",
      "type": "function",
      "constant": true
    },
    {
      "stateMutability": "payable",
      "type": "receive",
      "payable": true
    },
    {
      "inputs": [],
      "name": "senderAddress",
      "outputs": [
        {
          "internalType": "address",
          "name": "",
          "type": "address"
        }
      ],
      "stateMutability": "view",
      "type": "function",
      "constant": true
    },
    {
      "inputs": [],
      "name": "checkBalance",
      "outputs": [
        {
          "internalType": "uint256",
          "name": "",
          "type": "uint256"
        }
      ],
      "stateMutability": "nonpayable",
      "type": "function"
    },
    {
      "inputs": [],
      "name": "checktokenbalance",
      "outputs": [
        {
          "internalType": "uint256",
          "name": "",
          "type": "uint256"
        }
      ],
      "stateMutability": "view",
      "type": "function",
      "constant": true
    },
    {
      "inputs": [],
      "name": "unclaimed",
      "outputs": [
        {
          "internalType": "bool[]",
          "name": "",
          "type": "bool[]"
        }
      ],
      "stateMutability": "view",
      "type": "function",
      "constant": true
    },
    {
      "inputs": [],
      "name": "transfer",
      "outputs": [],
      "stateMutability": "payable",
      "type": "function",
      "payable": true
    },
    {
      "inputs": [
        {
          "internalType": "uint256",
          "name": "orderId",
          "type": "uint256"
        }
      ],
      "name": "claim",
      "outputs": [],
      "stateMutability": "nonpayable",
      "type": "function"
    }
  ],
  "bytecode": "0x608060405260006001553480156200001657600080fd5b50604051620012b4380380620012b483398181016040528101906200003c91906200012e565b806000806101000a81548173ffffffffffffffffffffffffffffffffffffffff021916908373ffffffffffffffffffffffffffffffffffffffff16021790555033600260006101000a81548173ffffffffffffffffffffffffffffffffffffffff021916908373ffffffffffffffffffffffffffffffffffffffff1602179055505062000160565b600080fd5b600073ffffffffffffffffffffffffffffffffffffffff82169050919050565b6000620000f682620000c9565b9050919050565b6200010881620000e9565b81146200011457600080fd5b50565b6000815190506200012881620000fd565b92915050565b600060208284031215620001475762000146620000c4565b5b6000620001578482850162000117565b91505092915050565b61114480620001706000396000f3fe60806040526004361061007f5760003560e01c80637638c8b71161004e5780637638c8b71461014a5780638a4068dd1461018a578063965feaf914610194578063c71daccb146101bf5761009b565b8063163de5e5146100a0578063379607f5146100cb5780634fc84791146100f4578063669416b81461011f5761009b565b3661009b57670de0b6b3a764000034101561009957600080fd5b005b600080fd5b3480156100ac57600080fd5b506100b56101ea565b6040516100c291906109f4565b60405180910390f35b3480156100d757600080fd5b506100f260048036038101906100ed9190610a40565b6101f0565b005b34801561010057600080fd5b5061010961046b565b6040516101169190610aae565b60405180910390f35b34801561012b57600080fd5b50610134610473565b6040516101419190610b93565b60405180910390f35b34801561015657600080fd5b50610171600480360381019061016c9190610a40565b6104f0565b6040516101819493929190610bc4565b60405180910390f35b61019261054d565b005b3480156101a057600080fd5b506101a961088e565b6040516101b691906109f4565b60405180910390f35b3480156101cb57600080fd5b506101d4610930565b6040516101e191906109f4565b60405180910390f35b60015481565b42600660008381526020019081526020016000206002015410610248576040517f08c379a000000000000000000000000000000000000000000000000000000000815260040161023f90610c66565b60405180910390fd5b600015156006600083815260200190815260200160002060030160009054906101000a900460ff161515146102b2576040517f08c379a00000000000000000000000000000000000000000000000000000000081526004016102a990610cd2565b60405180910390fd5b60008054906101000a900473ffffffffffffffffffffffffffffffffffffffff1673ffffffffffffffffffffffffffffffffffffffff1663a9059cbb6006600084815260200190815260200160002060000160009054906101000a900473ffffffffffffffffffffffffffffffffffffffff1660066000858152602001908152602001600020600101546040518363ffffffff1660e01b8152600401610359929190610cf2565b6020604051808303816000875af1158015610378573d6000803e3d6000fd5b505050506040513d601f19601f8201168201806040525081019061039c9190610d47565b5060016006600083815260200190815260200160002060030160006101000a81548160ff021916908315150217905550600160046001836103dd9190610da3565b815481106103ee576103ed610dd7565b5b90600052602060002090602091828204019190066101000a81548160ff0219169083151502179055507f1249d23b345b23e3a7ec8949a9d4faad373d52fde2ef2941ff1fc11723d0455e8160066000848152602001908152602001600020600101544260405161046093929190610e06565b60405180910390a150565b600033905090565b606060048054806020026020016040519081016040528092919081815260200182805480156104e657602002820191906000526020600020906000905b82829054906101000a900460ff161515815260200190600101906020826000010492830192600103820291508084116104b05790505b5050505050905090565b60066020528060005260406000206000915090508060000160009054906101000a900473ffffffffffffffffffffffffffffffffffffffff16908060010154908060020154908060030160009054906101000a900460ff16905084565b60003411610590576040517f08c379a000000000000000000000000000000000000000000000000000000000815260040161058790610e89565b60405180910390fd5b61138861059b61088e565b6064670de0b6b3a7640000346105b19190610ed8565b6105bb9190610f09565b6105c59190610f4b565b1115610606576040517f08c379a00000000000000000000000000000000000000000000000000000000081526004016105fd90610ff1565b60405180910390fd5b61060e610930565b6064670de0b6b3a7640000346106249190610ed8565b61062e9190610f09565b111561066f576040517f08c379a000000000000000000000000000000000000000000000000000000000815260040161066690611083565b60405180910390fd5b60018060008282546106819190610f4b565b9250508190555060405180608001604052803373ffffffffffffffffffffffffffffffffffffffff1681526020016064670de0b6b3a7640000346106c59190610ed8565b6106cf9190610f09565b8152602001603c426106e19190610f4b565b81526020016000151581525060066000600154815260200190815260200160002060008201518160000160006101000a81548173ffffffffffffffffffffffffffffffffffffffff021916908373ffffffffffffffffffffffffffffffffffffffff160217905550602082015181600101556040820151816002015560608201518160030160006101000a81548160ff021916908315150217905550905050600460066000600154815260200190815260200160002060030160009054906101000a900460ff1690806001815401808255809150506001900390600052602060002090602091828204019190069091909190916101000a81548160ff0219169083151502179055503373ffffffffffffffffffffffffffffffffffffffff16600260009054906101000a900473ffffffffffffffffffffffffffffffffffffffff1673ffffffffffffffffffffffffffffffffffffffff167f9ed053bb818ff08b8353cd46f78db1f0799f31c9e4458fdb425c10eccd2efc44600660006001548152602001908152602001600020600101546001546040516108849291906110a3565b60405180910390a3565b60008060009054906101000a900473ffffffffffffffffffffffffffffffffffffffff1673ffffffffffffffffffffffffffffffffffffffff166370a08231336040518263ffffffff1660e01b81526004016108ea9190610aae565b602060405180830381865afa158015610907573d6000803e3d6000fd5b505050506040513d601f19601f8201168201806040525081019061092b91906110e1565b905090565b60008060009054906101000a900473ffffffffffffffffffffffffffffffffffffffff1673ffffffffffffffffffffffffffffffffffffffff166370a08231306040518263ffffffff1660e01b815260040161098c9190610aae565b602060405180830381865afa1580156109a9573d6000803e3d6000fd5b505050506040513d601f19601f820116820180604052508101906109cd91906110e1565b600381905550600354905090565b6000819050919050565b6109ee816109db565b82525050565b6000602082019050610a0960008301846109e5565b92915050565b600080fd5b610a1d816109db565b8114610a2857600080fd5b50565b600081359050610a3a81610a14565b92915050565b600060208284031215610a5657610a55610a0f565b5b6000610a6484828501610a2b565b91505092915050565b600073ffffffffffffffffffffffffffffffffffffffff82169050919050565b6000610a9882610a6d565b9050919050565b610aa881610a8d565b82525050565b6000602082019050610ac36000830184610a9f565b92915050565b600081519050919050565b600082825260208201905092915050565b6000819050602082019050919050565b60008115159050919050565b610b0a81610af5565b82525050565b6000610b1c8383610b01565b60208301905092915050565b6000602082019050919050565b6000610b4082610ac9565b610b4a8185610ad4565b9350610b5583610ae5565b8060005b83811015610b86578151610b6d8882610b10565b9750610b7883610b28565b925050600181019050610b59565b5085935050505092915050565b60006020820190508181036000830152610bad8184610b35565b905092915050565b610bbe81610af5565b82525050565b6000608082019050610bd96000830187610a9f565b610be660208301866109e5565b610bf360408301856109e5565b610c006060830184610bb5565b95945050505050565b600082825260208201905092915050565b7f74696d652073686f6c64206265206d6f7265207468616e2031206d696e757465600082015250565b6000610c50602083610c09565b9150610c5b82610c1a565b602082019050919050565b60006020820190508181036000830152610c7f81610c43565b9050919050565b7f616c726561647920636c61696d65640000000000000000000000000000000000600082015250565b6000610cbc600f83610c09565b9150610cc782610c86565b602082019050919050565b60006020820190508181036000830152610ceb81610caf565b9050919050565b6000604082019050610d076000830185610a9f565b610d1460208301846109e5565b9392505050565b610d2481610af5565b8114610d2f57600080fd5b50565b600081519050610d4181610d1b565b92915050565b600060208284031215610d5d57610d5c610a0f565b5b6000610d6b84828501610d32565b91505092915050565b7f4e487b7100000000000000000000000000000000000000000000000000000000600052601160045260246000fd5b6000610dae826109db565b9150610db9836109db565b9250828203905081811115610dd157610dd0610d74565b5b92915050565b7f4e487b7100000000000000000000000000000000000000000000000000000000600052603260045260246000fd5b6000606082019050610e1b60008301866109e5565b610e2860208301856109e5565b610e3560408301846109e5565b949350505050565b7f73656e6420657468657200000000000000000000000000000000000000000000600082015250565b6000610e73600a83610c09565b9150610e7e82610e3d565b602082019050919050565b60006020820190508181036000830152610ea281610e66565b9050919050565b7f4e487b7100000000000000000000000000000000000000000000000000000000600052601260045260246000fd5b6000610ee3826109db565b9150610eee836109db565b925082610efe57610efd610ea9565b5b828204905092915050565b6000610f14826109db565b9150610f1f836109db565b9250828202610f2d816109db565b91508282048414831517610f4457610f43610d74565b5b5092915050565b6000610f56826109db565b9150610f61836109db565b9250828201905080821115610f7957610f78610d74565b5b92915050565b7f796f752063616e206e6f74207075726368617365206d6f7265207468616e203560008201527f30303020746f6b656e7300000000000000000000000000000000000000000000602082015250565b6000610fdb602a83610c09565b9150610fe682610f7f565b604082019050919050565b6000602082019050818103600083015261100a81610fce565b9050919050565b7f616d6f756e742073686f6c64206265206c657373207468616e2062616c616e6360008201527f6500000000000000000000000000000000000000000000000000000000000000602082015250565b600061106d602183610c09565b915061107882611011565b604082019050919050565b6000602082019050818103600083015261109c81611060565b9050919050565b60006040820190506110b860008301856109e5565b6110c560208301846109e5565b9392505050565b6000815190506110db81610a14565b92915050565b6000602082840312156110f7576110f6610a0f565b5b6000611105848285016110cc565b9150509291505056fea264697066735822122005249c178aed85298a21d766cc27512edbbb8c539faa4ec616f6ce8f9cbc8ebc64736f6c63430008120033",
  "immutableReferences": {},
  "source": "// SPDX-License-Identifier: GPL-3.0\npragma solidity >=0.4.16 <0.9.0;\n\nimport \"@openzeppelin/contracts/token/ERC20/ERC20.sol\";\nimport \"@openzeppelin/contracts/access/Ownable.sol\";\nimport \"../contracts/Mytoken.sol\";\n\n\ncontract Buyt\n{\n    Mytoken mt;\n    uint public orderId=0;\n    address conadd;\n    uint256 bal;\n    bool[] data; \n    uint[] storelenght;\n\n\n    struct Order{\n        address to;\n        uint256 amount;\n        uint time;\n        bool isclaimed;                                                                                                                                                                            \n    }\n    mapping(uint=>Order) public orderdata;\n\n    event Transfer(address indexed from, address indexed to, uint256 amount,uint orderId);\n    event claimeve(uint orderId,uint amount,uint256 time);\n    \n\n    constructor(address _add)                                       \n    {\n        mt=Mytoken(_add);\n        conadd=msg.sender;\n    }\n\n   \n    function senderAddress() public view returns(address)\n    {\n        return msg.sender;\n    }\n    function checkBalance() public returns(uint256)\n    {\n        bal=mt.balanceOf(address(this));\n        return bal;\n    }\n    // function od() public view returns(uint[] memory)\n    // {\n    //     return orderdata;\n    // }\n    function checktokenbalance() public view returns(uint256)\n    {\n        return mt.balanceOf(msg.sender);\n    }\n    \n    function unclaimed()public view returns(bool[] memory){\n        // delete data;\n        // for (uint i=1;i<=storelenght.length;i++)\n        // {\n        //     if(orderdata[i].isclaimed==false)\n        //     {\n        //         data.push(i); \n        //     }\n        // } \n        // return data;\n        return data;\n        \n    }\n    function transfer() public payable    \n    {\n        // mt.transfer(addr, amount);\n        require(msg.value>0,\"send ether\");\n        require(((msg.value/1  ether)*100)+checktokenbalance()<=5000,\"you can not purchase more than 5000 tokens\");\n        require((msg.value/1 ether)*100<=checkBalance(),\"amount shold be less than balance\");\n        orderId+=1;\n        orderdata[orderId]=Order(msg.sender,(msg.value/1 ether)*100,block.timestamp+60,false);\n        // storelenght.push(orderId);\n        // data[orderId]=orderdata[orderId].isclaimed;\n        data.push(orderdata[orderId].isclaimed);\n        emit Transfer(conadd,msg.sender,orderdata[orderId].amount,orderId);\n\n        \n    }\n    function claim(uint orderId) public\n    {   require(orderdata[orderId].time<block.timestamp,\"time shold be more than 1 minute\");\n        require(orderdata[orderId].isclaimed==false,\"already claimed\");\n \n        mt.transfer(orderdata[orderId].to,orderdata[orderId].amount);\n        orderdata[orderId].isclaimed=true;\n        // data[orderId]=true;\n        data[orderId-1]=true;\n        emit claimeve(orderId,orderdata[orderId].amount,block.timestamp);\n    }\n    receive() external payable {\n        require(msg.value>=1 ether);\n    }   \n    fallback() external payable{\n        revert();\n    }\n}",
  "sourcePath": "/home/hp/Documents/nency/newtask1/contracts/Buyt.sol",
  "compiler": {
    "name": "solc",
    "version": "0.8.18+commit.87f61d96.Emscripten.clang"
  },
  "schemaVersion": "3.4.11",
  "updatedAt": "2023-03-02T09:04:07.556Z",
  "networkType": "ethereum",
  "devdoc": {
    "kind": "dev",
    "methods": {},
    "version": 1
  },
  "userdoc": {
    "kind": "user",
    "methods": {},
    "version": 1
  }
}